:10000000AD2AFF3FFF3FFF3F000008000830031309
:100010008312FB00FF30FA00FB0B0F281228FA0BAB
:100020000F280C281E30FA00FA0B14280800103094
:1000300003138312FA00FA0B1B28000008000313B5
:10004000831220088400831664080319272880017E
:10005000E41B8015641B0015E41A8014641A001454
:1000600083122108031936288013372880170017B8
:1000700004208316640803193D2800138001E41945
:10008000801564190015E418801464180014831294
:10009000210803194D2880134E28801700170420CB
:1000A0000013210803195628062057281720080096
:1000B00003138312710DF80DF90D7408F802750819
:1000C000031C750FF902F00DF10D0F30FC00710DDE
:1000D000F80DF90D7408701C7328F8027508031CDC
:1000E000750FF9027828F80775080318750FF907D6
:1000F000F00DF10DFC0B6728701884287408F807C0
:1001000075080318750FF907000008000313831220
:10011000A1016B088316E4001F200130A100080034
:1001200003138312EB01EE01EF011030ED00220802
:10013000840004306F020318BE286D0880000000A0
:10014000000000000000000000000F300005F0007B
:100150007008EC0070080319B8286E08EB006C08F2
:100160000319B628EC0CEC13EB0AAF280430EF00AF
:10017000ED0D6D100430EE07EF0A99286B08F000C2
:10018000080003138312F8010830FC00700DF80D0D
:100190007408F8020318CE28F8070310F00DFC0BC2
:1001A000C628080003138312FD01F901F801710844
:1001B00070040319003471087506FA00FA1BFD0972
:1001C000FB01F51FE828F409F509F40A0319F50AFB
:1001D000F11FEF28F009F109F00A0319F10A71087B
:1001E0007504FA00FA1B042958207B181729FD1FF3
:1001F0000034F009F109F00A0319F10AF809F909C4
:10020000F80A0319F90A0034F51F1329F11B0F2905
:100210007108F9007008F800F101F001F728F10108
:10022000F001F00A0034F109F009FB0AF428F80A99
:100230000319F90A74087802031DF7287508790272
:10024000031DF728F901F801F00A0319F10AF11F5B
:10025000F7280000FF340800031383126708A20088
:10026000A30167088400800184170F308000080014
:100270004A29803003138312E7005D29C030E7006C
:100280005D299430E7005D29D430E7005D29803096
:10029000E7005D29031383126708013A031939291E
:1002A0006708023A03193E296708033A03194129EE
:1002B0006708043A0319442947296803F0006708CE
:1002C000F0077008E70070088316E4001F20A10102
:1002D000EA016A08690784000008F0007008031941
:1002E00079296A08690784000008EB008620EA0A79
:1002F00069290130A100080090207008E7000F3044
:100300000005F0000319862900007F296708F00026
:100310000800031383126808840020308000203016
:10032000840A8000840A80000130E9006708093CE3
:1003300003189B29E90A6708633C0318A029E90A06
:1003400003306807F00070088400800184036908A6
:10035000003C0318C5290A30F4006708F000C120EA
:100360007808F0007008800000086702F000F101D2
:10037000031CF1030A30F400F501D2207008E700F5
:10038000303080078403E903A72908000313831290
:10039000E8016808670784000008F0007008031986
:1003A000D9296808670784000008EB008620E80A5E
:1003B000C9290800003003138312CE000130B500B4
:1003C0004330A4006F30A5006D30A6006230A70056
:1003D0006930A8006E30A9006130AA007430AB000B
:1003E0006930AC006F30AD006E30AE002030AF0031
:1003F0004C30B0006F30B1006330B2006B30B300EE
:10040000B4012030CF002A30D0004430D1006F300A
:10041000D2006F30D3007230D4003130D50020309C
:10042000D6004F30D7006E30D8002A30D900DA011C
:100430002030DB002A30DC004430DD006F30DE008D
:100440006F30DF007230E0003230E1002030E20037
:100450004F30E3006E30E4002A30E500E6012A3038
:100460008316A0004430A1006F30A2006F30A300BB
:100470007230A4003130A5002630A6003230A7002B
:100480002030A8004F30A9006E30AA002A30AB00FF
:10049000AC0100308312B8000130B9000230BA005C
:1004A0000330BB000030BC000430BD000530BE008E
:1004B0000630BF000030C0000730C1000830C20065
:1004C0000930C3000030C4000A30C5000030C60047
:1004D0000B30C7000030C8000800062006200620A8
:1004E0006708A000670884008001841780018413D6
:1004F00080140014001700130620001700130620B4
:1005000000170013062080140010001700130620A7
:10051000800180140017001380018015001700135C
:10052000062080010014001700138001001700133B
:100530000620800100170013001400170013062086
:100540008001001700130014801400158015001797
:10055000001306200130A1000800DA21453083167F
:10056000AD006E30AE007430AF006530B000723058
:10057000B1005030B2006130B3007330B40073305A
:10058000B5003A30B600B7012A30B8002A30B900B9
:100590004930BA006E30BB007630BC006130BD001F
:1005A0006C30BE006930BF006430C0002030C10034
:1005B0004330C2006F30C3006430C4006530C500F2
:1005C0002A30C6002A30C700C8012030C9002A30AE
:1005D000CA004430CB006F30CC006F30CD00723099
:1005E000CE003330CF002030D0004F30D1006E30FD
:1005F000D2002A30D300D4012030D5002030D600DC
:100600002A30D7002A30D8004130D9006C30DA00C7
:100610006130DB007230DC006D30DD002030DE0048
:100620004F30DF006E30E0002A30E1002A30E20077
:10063000E301073083129F000530E7006D2201308F
:100640008316E4001F200C308316E4001F20C03006
:100650008316E4001F200630E7002C210130E7005C
:100660000130E8002430E90038218A2D013083165A
:10067000E4001F200130E7000130E8002430E900E9
:1006800038210230E7000130E800AD30E9003821C0
:10069000902070080319482B0D30FB00FF30FA0042
:1006A000FB0B532B562BFA0B532B502BF330FA002A
:1006B000FA0B582B00007C217008B6007008B700B8
:1006C0007008383F84000008F0007008B700700818
:1006D000E7004930E80089214930E700C6210230AF
:1006E000B500C72D36080F3A031D792B0130B50030
:1006F000822B36080D3A031D802B0130B500822B6A
:100700000330B500C72D902070080319832B0D30DE
:10071000FB00FF30FA00FB0B8E2B912BFA0B8E2B7C
:100720008B2BF330FA00FA0B932B00007C2170081E
:10073000B6007008CD007008383F84000008F00053
:100740007008CD007008E7004930E8008921493081
:10075000E700C6210430B500C72D36080F3A031D47
:10076000B42B0130B500BD2B36080D3A031DBB2B51
:100770000130B500BD2B0530B500C72D90207008A5
:100780000319BE2B0D30FB00FF30FA00FB0BC92B09
:10079000CC2BFA0BC92BC62BF330FA00FA0BCE2B5D
:1007A00000007C217008B6000630B500C72D360861
:1007B0000D3A031DDE2B0130B500E72B36080F3A4A
:1007C000031DE52B0730B500E72B0530B500C72D1D
:1007D0003708003A031DF32B4D08053A031DF32B90
:1007E0000C30B500F52B0830B500C72D3708023A9C
:1007F000031D012C4D08083A031D012C0D30B500D6
:10080000032C0930B500C72D3708083A031D0F2CFB
:100810004D08023A031D0F2C0E30B500112C0A3082
:10082000B500C72D3708033A031D1D2C4D08033AA8
:10083000031D1D2C0F30B5001F2C0B30B500C72D2C
:100840000230E7000130E800B830E9003821CE0A74
:100850004E08B60703304E020318312C0130B500A4
:10086000332C1030B500902070080319332C0D3054
:10087000FB00FF30FA00FB0B3E2C412CFA0B3E2C08
:100880003B2CF330FA00FA0B432C00007C2170085B
:10089000B60001308316E4001F20C72D01308316F7
:1008A000E4001F200230E7000130E8004F30E9008B
:1008B00038210130E7000130E8002430E900382118
:1008C000051606168613061386121A30FC00FF3032
:1008D000FB00FF30FA00FC0B6E2C752CFB0B712C0F
:1008E000742CFA0B712C6E2C6B2C7F30FB00FF30BC
:1008F000FA00FB0B7C2C7F2CFA0B7C2C792C5830CB
:10090000FA00FA0B812C000000000512013083165A
:10091000E4001F20CE010130B500C72D0130831641
:10092000E4001F200230E7000130E8005B30E900FE
:1009300038210130E7000130E8002430E900382197
:10094000051686160612061386131A30FC00FF30B1
:10095000FB00FF30FA00FC0BAE2CB52CFB0BB12CCE
:10096000B42CFA0BB12CAE2CAB2C7F30FB00FF303B
:10097000FA00FB0BBC2CBF2CFA0BBC2CB92C58304A
:10098000FA00FA0BC12C000000000512013083169A
:10099000E4001F20CE010130B500C72D01308316C1
:1009A000E4001F200230E7000130E800C930E90010
:1009B00038210130E7000130E8002430E900382117
:1009C000051606128612061786131A30FC00FF3031
:1009D000FB00FF30FA00FC0BEE2CF52CFB0BF12C8E
:1009E000F42CFA0BF12CEE2CEB2C7F30FB00FF30BB
:1009F000FA00FB0BFC2CFF2CFA0BFC2CF92C5830CA
:100A0000FA00FA0B012D00000000051201308316D8
:100A1000E4001F20CE010130B500C72D0130831640
:100A2000E4001F200230E7000130E800A030E900B8
:100A300038210130E7000130E8002430E900382196
:100A4000051606168616061386131A30FC00FF30AC
:100A5000FB00FF30FA00FC0B2E2D352DFB0B312D4A
:100A6000342DFA0B312D2E2D2B2D7F30FB00FF3036
:100A7000FA00FB0B3C2D3F2DFA0B3C2D392D583045
:100A8000FA00FA0B412D0000000005120130831618
:100A9000E4001F20CE010130B500C72D0230E70071
:100AA0000130E800D530E90038210130E70001309D
:100AB000E8002430E90038210516061286120613D4
:100AC00086171A30FC00FF30FB00FF30FA00FC0BE9
:100AD0006A2D712DFB0B6D2D702DFA0B6D2D6A2D6E
:100AE000672D7F30FB00FF30FA00FB0B782D7B2D4C
:100AF000FA0B782D752D5830FA00FA0B7D2D000079
:100B00000000051201308316E4001F20CE010130E1
:100B1000B500C72D3508013A0319362B3508023ABE
:100B20000319722B3508033A0319832B3508043A4D
:100B30000319AD2B3508053A0319BE2B3508063AC3
:100B40000319D72B3508073A0319E82B3508083A5B
:100B50000319F62B3508093A0319042C35080A3A0B
:100B60000319122C35080B3A0319202C35080C3ABE
:100B700003194E2C35080D3A03198E2C35080E3A00
:100B80000319CE2C35080F3A03190E2D4E2D352B97
:100B9000C82DFF3FFF3FFF3FFF3FFF3FFF3FFF3FAE
:02400E00183F59
:00000001FF
